{
  "_format": "hh-sol-artifact-1",
  "contractName": "DumbWojapes2",
  "sourceName": "contracts/DumbWojapes2.sol",
  "abi": [
    {
      "inputs": [
        {
          "internalType": "address",
          "name": "_wojapesAddress",
          "type": "address"
        },
        {
          "internalType": "bytes32",
          "name": "_merkleRoot",
          "type": "bytes32"
        }
      ],
      "stateMutability": "nonpayable",
      "type": "constructor"
    },
    {
      "inputs": [],
      "name": "ApprovalCallerNotOwnerNorApproved",
      "type": "error"
    },
    {
      "inputs": [],
      "name": "ApprovalQueryForNonexistentToken",
      "type": "error"
    },
    {
      "inputs": [],
      "name": "BalanceQueryForZeroAddress",
      "type": "error"
    },
    {
      "inputs": [],
      "name": "MintERC2309QuantityExceedsLimit",
      "type": "error"
    },
    {
      "inputs": [],
      "name": "MintToZeroAddress",
      "type": "error"
    },
    {
      "inputs": [],
      "name": "MintZeroQuantity",
      "type": "error"
    },
    {
      "inputs": [],
      "name": "OwnerQueryForNonexistentToken",
      "type": "error"
    },
    {
      "inputs": [],
      "name": "OwnershipNotInitializedForExtraData",
      "type": "error"
    },
    {
      "inputs": [],
      "name": "TransferCallerNotOwnerNorApproved",
      "type": "error"
    },
    {
      "inputs": [],
      "name": "TransferFromIncorrectOwner",
      "type": "error"
    },
    {
      "inputs": [],
      "name": "TransferToNonERC721ReceiverImplementer",
      "type": "error"
    },
    {
      "inputs": [],
      "name": "TransferToZeroAddress",
      "type": "error"
    },
    {
      "inputs": [],
      "name": "URIQueryForNonexistentToken",
      "type": "error"
    },
    {
      "anonymous": false,
      "inputs": [
        {
          "indexed": true,
          "internalType": "address",
          "name": "owner",
          "type": "address"
        },
        {
          "indexed": true,
          "internalType": "address",
          "name": "approved",
          "type": "address"
        },
        {
          "indexed": true,
          "internalType": "uint256",
          "name": "tokenId",
          "type": "uint256"
        }
      ],
      "name": "Approval",
      "type": "event"
    },
    {
      "anonymous": false,
      "inputs": [
        {
          "indexed": true,
          "internalType": "address",
          "name": "owner",
          "type": "address"
        },
        {
          "indexed": true,
          "internalType": "address",
          "name": "operator",
          "type": "address"
        },
        {
          "indexed": false,
          "internalType": "bool",
          "name": "approved",
          "type": "bool"
        }
      ],
      "name": "ApprovalForAll",
      "type": "event"
    },
    {
      "anonymous": false,
      "inputs": [
        {
          "indexed": true,
          "internalType": "uint256",
          "name": "fromTokenId",
          "type": "uint256"
        },
        {
          "indexed": false,
          "internalType": "uint256",
          "name": "toTokenId",
          "type": "uint256"
        },
        {
          "indexed": true,
          "internalType": "address",
          "name": "from",
          "type": "address"
        },
        {
          "indexed": true,
          "internalType": "address",
          "name": "to",
          "type": "address"
        }
      ],
      "name": "ConsecutiveTransfer",
      "type": "event"
    },
    {
      "anonymous": false,
      "inputs": [
        {
          "indexed": true,
          "internalType": "address",
          "name": "previousOwner",
          "type": "address"
        },
        {
          "indexed": true,
          "internalType": "address",
          "name": "newOwner",
          "type": "address"
        }
      ],
      "name": "OwnershipTransferred",
      "type": "event"
    },
    {
      "anonymous": false,
      "inputs": [
        {
          "indexed": true,
          "internalType": "address",
          "name": "from",
          "type": "address"
        },
        {
          "indexed": true,
          "internalType": "address",
          "name": "to",
          "type": "address"
        },
        {
          "indexed": true,
          "internalType": "uint256",
          "name": "tokenId",
          "type": "uint256"
        }
      ],
      "name": "Transfer",
      "type": "event"
    },
    {
      "inputs": [
        {
          "internalType": "address",
          "name": "to",
          "type": "address"
        },
        {
          "internalType": "uint256",
          "name": "tokenId",
          "type": "uint256"
        }
      ],
      "name": "approve",
      "outputs": [],
      "stateMutability": "payable",
      "type": "function"
    },
    {
      "inputs": [
        {
          "internalType": "address",
          "name": "owner",
          "type": "address"
        }
      ],
      "name": "balanceOf",
      "outputs": [
        {
          "internalType": "uint256",
          "name": "",
          "type": "uint256"
        }
      ],
      "stateMutability": "view",
      "type": "function"
    },
    {
      "inputs": [],
      "name": "baseURI",
      "outputs": [
        {
          "internalType": "string",
          "name": "",
          "type": "string"
        }
      ],
      "stateMutability": "view",
      "type": "function"
    },
    {
      "inputs": [],
      "name": "claimPerWojape",
      "outputs": [
        {
          "internalType": "uint256",
          "name": "",
          "type": "uint256"
        }
      ],
      "stateMutability": "view",
      "type": "function"
    },
    {
      "inputs": [
        {
          "internalType": "uint256",
          "name": "tokenId",
          "type": "uint256"
        }
      ],
      "name": "getApproved",
      "outputs": [
        {
          "internalType": "address",
          "name": "",
          "type": "address"
        }
      ],
      "stateMutability": "view",
      "type": "function"
    },
    {
      "inputs": [],
      "name": "holderMintActive",
      "outputs": [
        {
          "internalType": "bool",
          "name": "",
          "type": "bool"
        }
      ],
      "stateMutability": "view",
      "type": "function"
    },
    {
      "inputs": [
        {
          "internalType": "address",
          "name": "owner",
          "type": "address"
        },
        {
          "internalType": "address",
          "name": "operator",
          "type": "address"
        }
      ],
      "name": "isApprovedForAll",
      "outputs": [
        {
          "internalType": "bool",
          "name": "",
          "type": "bool"
        }
      ],
      "stateMutability": "view",
      "type": "function"
    },
    {
      "inputs": [],
      "name": "maxSupply",
      "outputs": [
        {
          "internalType": "uint256",
          "name": "",
          "type": "uint256"
        }
      ],
      "stateMutability": "view",
      "type": "function"
    },
    {
      "inputs": [],
      "name": "merkleRoot",
      "outputs": [
        {
          "internalType": "bytes32",
          "name": "",
          "type": "bytes32"
        }
      ],
      "stateMutability": "view",
      "type": "function"
    },
    {
      "inputs": [
        {
          "internalType": "uint256[]",
          "name": "_wojapesTokenIds",
          "type": "uint256[]"
        }
      ],
      "name": "mintHolders",
      "outputs": [],
      "stateMutability": "nonpayable",
      "type": "function"
    },
    {
      "inputs": [
        {
          "internalType": "bytes32[]",
          "name": "_merkleProof",
          "type": "bytes32[]"
        },
        {
          "internalType": "uint256",
          "name": "_mintAmount",
          "type": "uint256"
        }
      ],
      "name": "mintWhitelist",
      "outputs": [],
      "stateMutability": "payable",
      "type": "function"
    },
    {
      "inputs": [
        {
          "internalType": "address",
          "name": "",
          "type": "address"
        }
      ],
      "name": "mintedWls",
      "outputs": [
        {
          "internalType": "uint256",
          "name": "",
          "type": "uint256"
        }
      ],
      "stateMutability": "view",
      "type": "function"
    },
    {
      "inputs": [],
      "name": "mintsWl",
      "outputs": [
        {
          "internalType": "uint256",
          "name": "",
          "type": "uint256"
        }
      ],
      "stateMutability": "view",
      "type": "function"
    },
    {
      "inputs": [],
      "name": "name",
      "outputs": [
        {
          "internalType": "string",
          "name": "",
          "type": "string"
        }
      ],
      "stateMutability": "view",
      "type": "function"
    },
    {
      "inputs": [],
      "name": "owner",
      "outputs": [
        {
          "internalType": "address",
          "name": "",
          "type": "address"
        }
      ],
      "stateMutability": "view",
      "type": "function"
    },
    {
      "inputs": [
        {
          "internalType": "uint256",
          "name": "tokenId",
          "type": "uint256"
        }
      ],
      "name": "ownerOf",
      "outputs": [
        {
          "internalType": "address",
          "name": "",
          "type": "address"
        }
      ],
      "stateMutability": "view",
      "type": "function"
    },
    {
      "inputs": [],
      "name": "releaseReserve",
      "outputs": [],
      "stateMutability": "nonpayable",
      "type": "function"
    },
    {
      "inputs": [],
      "name": "renounceOwnership",
      "outputs": [],
      "stateMutability": "nonpayable",
      "type": "function"
    },
    {
      "inputs": [
        {
          "internalType": "uint256",
          "name": "_mintAmount",
          "type": "uint256"
        }
      ],
      "name": "reserveTokens",
      "outputs": [],
      "stateMutability": "nonpayable",
      "type": "function"
    },
    {
      "inputs": [
        {
          "internalType": "address",
          "name": "from",
          "type": "address"
        },
        {
          "internalType": "address",
          "name": "to",
          "type": "address"
        },
        {
          "internalType": "uint256",
          "name": "tokenId",
          "type": "uint256"
        }
      ],
      "name": "safeTransferFrom",
      "outputs": [],
      "stateMutability": "payable",
      "type": "function"
    },
    {
      "inputs": [
        {
          "internalType": "address",
          "name": "from",
          "type": "address"
        },
        {
          "internalType": "address",
          "name": "to",
          "type": "address"
        },
        {
          "internalType": "uint256",
          "name": "tokenId",
          "type": "uint256"
        },
        {
          "internalType": "bytes",
          "name": "_data",
          "type": "bytes"
        }
      ],
      "name": "safeTransferFrom",
      "outputs": [],
      "stateMutability": "payable",
      "type": "function"
    },
    {
      "inputs": [
        {
          "internalType": "address",
          "name": "operator",
          "type": "address"
        },
        {
          "internalType": "bool",
          "name": "approved",
          "type": "bool"
        }
      ],
      "name": "setApprovalForAll",
      "outputs": [],
      "stateMutability": "nonpayable",
      "type": "function"
    },
    {
      "inputs": [
        {
          "internalType": "string",
          "name": "_baseURI",
          "type": "string"
        }
      ],
      "name": "setBaseURI",
      "outputs": [],
      "stateMutability": "nonpayable",
      "type": "function"
    },
    {
      "inputs": [
        {
          "internalType": "bool",
          "name": "_holderMintActive",
          "type": "bool"
        }
      ],
      "name": "setHolderMintActive",
      "outputs": [],
      "stateMutability": "nonpayable",
      "type": "function"
    },
    {
      "inputs": [
        {
          "internalType": "bytes32",
          "name": "_merkleRoot",
          "type": "bytes32"
        }
      ],
      "name": "setWhitelistMerkleRoot",
      "outputs": [],
      "stateMutability": "nonpayable",
      "type": "function"
    },
    {
      "inputs": [
        {
          "internalType": "bool",
          "name": "_wlMintActive",
          "type": "bool"
        }
      ],
      "name": "setWlMintActive",
      "outputs": [],
      "stateMutability": "nonpayable",
      "type": "function"
    },
    {
      "inputs": [
        {
          "internalType": "bytes4",
          "name": "interfaceId",
          "type": "bytes4"
        }
      ],
      "name": "supportsInterface",
      "outputs": [
        {
          "internalType": "bool",
          "name": "",
          "type": "bool"
        }
      ],
      "stateMutability": "view",
      "type": "function"
    },
    {
      "inputs": [],
      "name": "symbol",
      "outputs": [
        {
          "internalType": "string",
          "name": "",
          "type": "string"
        }
      ],
      "stateMutability": "view",
      "type": "function"
    },
    {
      "inputs": [
        {
          "internalType": "uint256",
          "name": "_tokenId",
          "type": "uint256"
        }
      ],
      "name": "tokenURI",
      "outputs": [
        {
          "internalType": "string",
          "name": "",
          "type": "string"
        }
      ],
      "stateMutability": "view",
      "type": "function"
    },
    {
      "inputs": [],
      "name": "totalSupply",
      "outputs": [
        {
          "internalType": "uint256",
          "name": "",
          "type": "uint256"
        }
      ],
      "stateMutability": "view",
      "type": "function"
    },
    {
      "inputs": [
        {
          "internalType": "address",
          "name": "from",
          "type": "address"
        },
        {
          "internalType": "address",
          "name": "to",
          "type": "address"
        },
        {
          "internalType": "uint256",
          "name": "tokenId",
          "type": "uint256"
        }
      ],
      "name": "transferFrom",
      "outputs": [],
      "stateMutability": "payable",
      "type": "function"
    },
    {
      "inputs": [
        {
          "internalType": "address",
          "name": "newOwner",
          "type": "address"
        }
      ],
      "name": "transferOwnership",
      "outputs": [],
      "stateMutability": "nonpayable",
      "type": "function"
    },
    {
      "inputs": [],
      "name": "withdraw",
      "outputs": [],
      "stateMutability": "payable",
      "type": "function"
    },
    {
      "inputs": [],
      "name": "wlMintActive",
      "outputs": [
        {
          "internalType": "bool",
          "name": "",
          "type": "bool"
        }
      ],
      "stateMutability": "view",
      "type": "function"
    },
    {
      "inputs": [],
      "name": "wojapes",
      "outputs": [
        {
          "internalType": "contract DumbWojapes",
          "name": "",
          "type": "address"
        }
      ],
      "stateMutability": "view",
      "type": "function"
    },
    {
      "inputs": [
        {
          "internalType": "uint256",
          "name": "",
          "type": "uint256"
        }
      ],
      "name": "wojapesClaimed",
      "outputs": [
        {
          "internalType": "bool",
          "name": "",
          "type": "bool"
        }
      ],
      "stateMutability": "view",
      "type": "function"
    }
  ],
  "bytecode": "0x60a060405260026009556004600a55601e600b556000600c60006101000a81548160ff0219169083151502179055506000600c60016101000a81548160ff0219169083151502179055503480156200005657600080fd5b50604051620040283803806200402883398181016040528101906200007c91906200034b565b6040518060400160405280600e81526020017f44756d6220576f6a6170657320320000000000000000000000000000000000008152506040518060400160405280600981526020017f574f4a415045532032000000000000000000000000000000000000000000000081525062000108620000fc6200019860201b60201c565b620001a060201b60201c565b8160039080519060200190620001209291906200026d565b508060049080519060200190620001399291906200026d565b506200014a6200026460201b60201c565b60018190555050508173ffffffffffffffffffffffffffffffffffffffff1660808173ffffffffffffffffffffffffffffffffffffffff1660601b815250508060108190555050506200046e565b600033905090565b60008060009054906101000a900473ffffffffffffffffffffffffffffffffffffffff169050816000806101000a81548173ffffffffffffffffffffffffffffffffffffffff021916908373ffffffffffffffffffffffffffffffffffffffff1602179055508173ffffffffffffffffffffffffffffffffffffffff168173ffffffffffffffffffffffffffffffffffffffff167f8be0079c531659141344cd1fd0a4f28419497f9722a3daafe3b4186f6b6457e060405160405180910390a35050565b60006001905090565b8280546200027b90620003d0565b90600052602060002090601f0160209004810192826200029f5760008555620002eb565b82601f10620002ba57805160ff1916838001178555620002eb565b82800160010185558215620002eb579182015b82811115620002ea578251825591602001919060010190620002cd565b5b509050620002fa9190620002fe565b5090565b5b8082111562000319576000816000905550600101620002ff565b5090565b6000815190506200032e816200043a565b92915050565b600081519050620003458162000454565b92915050565b6000806040838503121562000365576200036462000435565b5b600062000375858286016200031d565b9250506020620003888582860162000334565b9150509250929050565b60006200039f82620003b0565b9050919050565b6000819050919050565b600073ffffffffffffffffffffffffffffffffffffffff82169050919050565b60006002820490506001821680620003e957607f821691505b602082108114156200040057620003ff62000406565b5b50919050565b7f4e487b7100000000000000000000000000000000000000000000000000000000600052602260045260246000fd5b600080fd5b620004458162000392565b81146200045157600080fd5b50565b6200045f81620003a6565b81146200046b57600080fd5b50565b60805160601c613b946200049460003960008181610f2e015261168b0152613b946000f3fe60806040526004361061020f5760003560e01c8063715018a611610118578063c87b56dd116100a0578063d5abeb011161006f578063d5abeb0114610713578063d838a8011461073e578063e985e9c514610769578063f2fde38b146107a6578063fc70a1d7146107cf5761020f565b8063c87b56dd1461066d578063c91be70d146106aa578063d031370b146106d3578063d3933ada146106fc5761020f565b8063a6d612f9116100e7578063a6d612f9146105a6578063b405f1d3146105c2578063b88d4fde146105ff578063bd32fb661461061b578063be2a7a6a146106445761020f565b8063715018a6146105105780638da5cb5b1461052757806395d89b4114610552578063a22cb4651461057d5761020f565b806342842e0e1161019b57806355f804b31161016a57806355f804b3146104195780636352211e146104425780636406c3e51461047f5780636c0360eb146104a857806370a08231146104d35761020f565b806342842e0e1461037c578063442a2ce0146103985780634af8ae79146103c357806351222f33146103ee5761020f565b806318160ddd116101e257806318160ddd146102d557806323b872dd146103005780632668a3c11461031c5780632eb4a7ab146103475780633ccfd60b146103725761020f565b806301ffc9a71461021457806306fdde0314610251578063081812fc1461027c578063095ea7b3146102b9575b600080fd5b34801561022057600080fd5b5061023b60048036038101906102369190612c34565b61080c565b60405161024891906130dc565b60405180910390f35b34801561025d57600080fd5b5061026661089e565b604051610273919061312d565b60405180910390f35b34801561028857600080fd5b506102a3600480360381019061029e9190612cd7565b610930565b6040516102b09190613075565b60405180910390f35b6102d360048036038101906102ce9190612aed565b6109af565b005b3480156102e157600080fd5b506102ea610af3565b6040516102f791906132ef565b60405180910390f35b61031a600480360381019061031591906129d7565b610b0a565b005b34801561032857600080fd5b50610331610e2f565b60405161033e91906130dc565b60405180910390f35b34801561035357600080fd5b5061035c610e42565b60405161036991906130f7565b60405180910390f35b61037a610e48565b005b610396600480360381019061039191906129d7565b610f06565b005b3480156103a457600080fd5b506103ad610f26565b6040516103ba91906132ef565b60405180910390f35b3480156103cf57600080fd5b506103d8610f2c565b6040516103e59190613112565b60405180910390f35b3480156103fa57600080fd5b50610403610f50565b60405161041091906130dc565b60405180910390f35b34801561042557600080fd5b50610440600480360381019061043b9190612c8e565b610f63565b005b34801561044e57600080fd5b5061046960048036038101906104649190612cd7565b610f85565b6040516104769190613075565b60405180910390f35b34801561048b57600080fd5b506104a660048036038101906104a19190612bda565b610f97565b005b3480156104b457600080fd5b506104bd610fbc565b6040516104ca919061312d565b60405180910390f35b3480156104df57600080fd5b506104fa60048036038101906104f5919061293d565b61104a565b60405161050791906132ef565b60405180910390f35b34801561051c57600080fd5b50610525611103565b005b34801561053357600080fd5b5061053c611117565b6040516105499190613075565b60405180910390f35b34801561055e57600080fd5b50610567611140565b604051610574919061312d565b60405180910390f35b34801561058957600080fd5b506105a4600480360381019061059f9190612aad565b6111d2565b005b6105c060048036038101906105bb9190612b2d565b6112dd565b005b3480156105ce57600080fd5b506105e960048036038101906105e4919061293d565b61156f565b6040516105f691906132ef565b60405180910390f35b61061960048036038101906106149190612a2a565b611587565b005b34801561062757600080fd5b50610642600480360381019061063d9190612c07565b6115fa565b005b34801561065057600080fd5b5061066b60048036038101906106669190612b8d565b61160c565b005b34801561067957600080fd5b50610694600480360381019061068f9190612cd7565b611854565b6040516106a1919061312d565b60405180910390f35b3480156106b657600080fd5b506106d160048036038101906106cc9190612bda565b6118fb565b005b3480156106df57600080fd5b506106fa60048036038101906106f59190612cd7565b611920565b005b34801561070857600080fd5b50610711611993565b005b34801561071f57600080fd5b506107286119a5565b60405161073591906132ef565b60405180910390f35b34801561074a57600080fd5b506107536119ab565b60405161076091906132ef565b60405180910390f35b34801561077557600080fd5b50610790600480360381019061078b9190612997565b6119b1565b60405161079d91906130dc565b60405180910390f35b3480156107b257600080fd5b506107cd60048036038101906107c8919061293d565b611a45565b005b3480156107db57600080fd5b506107f660048036038101906107f19190612cd7565b611ac9565b60405161080391906130dc565b60405180910390f35b60006301ffc9a760e01b827bffffffffffffffffffffffffffffffffffffffffffffffffffffffff1916148061086757506380ac58cd60e01b827bffffffffffffffffffffffffffffffffffffffffffffffffffffffff1916145b806108975750635b5e139f60e01b827bffffffffffffffffffffffffffffffffffffffffffffffffffffffff1916145b9050919050565b6060600380546108ad906135ea565b80601f01602080910402602001604051908101604052809291908181526020018280546108d9906135ea565b80156109265780601f106108fb57610100808354040283529160200191610926565b820191906000526020600020905b81548152906001019060200180831161090957829003601f168201915b5050505050905090565b600061093b82611ae9565b610971576040517fcf4700e400000000000000000000000000000000000000000000000000000000815260040160405180910390fd5b6007600083815260200190815260200160002060000160009054906101000a900473ffffffffffffffffffffffffffffffffffffffff169050919050565b60006109ba82610f85565b90508073ffffffffffffffffffffffffffffffffffffffff166109db611b48565b73ffffffffffffffffffffffffffffffffffffffff1614610a3e57610a0781610a02611b48565b6119b1565b610a3d576040517fcfb3b94200000000000000000000000000000000000000000000000000000000815260040160405180910390fd5b5b826007600084815260200190815260200160002060000160006101000a81548173ffffffffffffffffffffffffffffffffffffffff021916908373ffffffffffffffffffffffffffffffffffffffff160217905550818373ffffffffffffffffffffffffffffffffffffffff168273ffffffffffffffffffffffffffffffffffffffff167f8c5be1e5ebec7d5bd14f71427d1e84f3dd0314c0f7b2291e5b200ac8c7c3b92560405160405180910390a4505050565b6000610afd611b50565b6002546001540303905090565b6000610b1582611b59565b90508373ffffffffffffffffffffffffffffffffffffffff168173ffffffffffffffffffffffffffffffffffffffff1614610b7c576040517fa114810000000000000000000000000000000000000000000000000000000000815260040160405180910390fd5b600080610b8884611c27565b91509150610b9e8187610b99611b48565b611c4e565b610bea57610bb386610bae611b48565b6119b1565b610be9576040517f59c896be00000000000000000000000000000000000000000000000000000000815260040160405180910390fd5b5b600073ffffffffffffffffffffffffffffffffffffffff168573ffffffffffffffffffffffffffffffffffffffff161415610c51576040517fea553b3400000000000000000000000000000000000000000000000000000000815260040160405180910390fd5b610c5e8686866001611c92565b8015610c6957600082555b600660008773ffffffffffffffffffffffffffffffffffffffff1673ffffffffffffffffffffffffffffffffffffffff168152602001908152602001600020600081546001900391905081905550600660008673ffffffffffffffffffffffffffffffffffffffff1673ffffffffffffffffffffffffffffffffffffffff1681526020019081526020016000206000815460010191905081905550610d3785610d13888887611c98565b7c020000000000000000000000000000000000000000000000000000000017611cc0565b600560008681526020019081526020016000208190555060007c020000000000000000000000000000000000000000000000000000000084161415610dbf576000600185019050600060056000838152602001908152602001600020541415610dbd576001548114610dbc578360056000838152602001908152602001600020819055505b5b505b838573ffffffffffffffffffffffffffffffffffffffff168773ffffffffffffffffffffffffffffffffffffffff167fddf252ad1be2c89b69c2b068fc378daa952ba7f163c4a11628f55a4df523b3ef60405160405180910390a4610e278686866001611ceb565b505050505050565b600c60019054906101000a900460ff1681565b60105481565b610e50611cf1565b6000610e5a611117565b73ffffffffffffffffffffffffffffffffffffffff1647604051610e7d90613060565b60006040518083038185875af1925050503d8060008114610eba576040519150601f19603f3d011682016040523d82523d6000602084013e610ebf565b606091505b5050905080610f03576040517f08c379a0000000000000000000000000000000000000000000000000000000008152600401610efa9061314f565b60405180910390fd5b50565b610f2183838360405180602001604052806000815250611587565b505050565b600a5481565b7f000000000000000000000000000000000000000000000000000000000000000081565b600c60009054906101000a900460ff1681565b610f6b611cf1565b80600f9080519060200190610f8192919061267b565b5050565b6000610f9082611b59565b9050919050565b610f9f611cf1565b80600c60016101000a81548160ff02191690831515021790555050565b600f8054610fc9906135ea565b80601f0160208091040260200160405190810160405280929190818152602001828054610ff5906135ea565b80156110425780601f1061101757610100808354040283529160200191611042565b820191906000526020600020905b81548152906001019060200180831161102557829003601f168201915b505050505081565b60008073ffffffffffffffffffffffffffffffffffffffff168273ffffffffffffffffffffffffffffffffffffffff1614156110b2576040517f8f4eb60400000000000000000000000000000000000000000000000000000000815260040160405180910390fd5b67ffffffffffffffff600660008473ffffffffffffffffffffffffffffffffffffffff1673ffffffffffffffffffffffffffffffffffffffff16815260200190815260200160002054169050919050565b61110b611cf1565b6111156000611d6f565b565b60008060009054906101000a900473ffffffffffffffffffffffffffffffffffffffff16905090565b60606004805461114f906135ea565b80601f016020809104026020016040519081016040528092919081815260200182805461117b906135ea565b80156111c85780601f1061119d576101008083540402835291602001916111c8565b820191906000526020600020905b8154815290600101906020018083116111ab57829003601f168201915b5050505050905090565b80600860006111df611b48565b73ffffffffffffffffffffffffffffffffffffffff1673ffffffffffffffffffffffffffffffffffffffff16815260200190815260200160002060008473ffffffffffffffffffffffffffffffffffffffff1673ffffffffffffffffffffffffffffffffffffffff16815260200190815260200160002060006101000a81548160ff0219169083151502179055508173ffffffffffffffffffffffffffffffffffffffff1661128c611b48565b73ffffffffffffffffffffffffffffffffffffffff167f17307eab39ab6107e8899845ad3d59bd9653f200f220920489ca2b5937696c31836040516112d191906130dc565b60405180910390a35050565b600c60009054906101000a900460ff1661132c576040517f08c379a0000000000000000000000000000000000000000000000000000000008152600401611323906131cf565b60405180910390fd5b600b5461030961133c91906134c0565b81611345610af3565b61134f91906133df565b111561135a57600080fd5b3273ffffffffffffffffffffffffffffffffffffffff163373ffffffffffffffffffffffffffffffffffffffff16146113c8576040517f08c379a00000000000000000000000000000000000000000000000000000000081526004016113bf906132cf565b60405180910390fd5b60095481600e60003373ffffffffffffffffffffffffffffffffffffffff1673ffffffffffffffffffffffffffffffffffffffff1681526020019081526020016000205461141691906133df565b1115611457576040517f08c379a000000000000000000000000000000000000000000000000000000000815260040161144e9061320f565b60405180910390fd5b6114cb838380806020026020016040519081016040528093929190818152602001838360200280828437600081840152601f19601f82011690508083019250505050505050601054336040516020016114b09190613016565b60405160208183030381529060405280519060200120611e33565b61150a576040517f08c379a00000000000000000000000000000000000000000000000000000000081526004016115019061326f565b60405180910390fd5b80600e60003373ffffffffffffffffffffffffffffffffffffffff1673ffffffffffffffffffffffffffffffffffffffff168152602001908152602001600020600082825461155991906133df565b9250508190555061156a3382611e4a565b505050565b600e6020528060005260406000206000915090505481565b611592848484610b0a565b60008373ffffffffffffffffffffffffffffffffffffffff163b146115f4576115bd84848484612008565b6115f3576040517fd1a57ed600000000000000000000000000000000000000000000000000000000815260040160405180910390fd5b5b50505050565b611602611cf1565b8060108190555050565b600c60019054906101000a900460ff1661165b576040517f08c379a0000000000000000000000000000000000000000000000000000000008152600401611652906131af565b60405180910390fd5b60005b8282905081101561184257600083838381811061167e5761167d613778565b5b90506020020135905060007f000000000000000000000000000000000000000000000000000000000000000073ffffffffffffffffffffffffffffffffffffffff16636352211e836040518263ffffffff1660e01b81526004016116e291906132ef565b60206040518083038186803b1580156116fa57600080fd5b505afa15801561170e573d6000803e3d6000fd5b505050506040513d601f19601f82011682018060405250810190611732919061296a565b90503373ffffffffffffffffffffffffffffffffffffffff168173ffffffffffffffffffffffffffffffffffffffff16146117a2576040517f08c379a00000000000000000000000000000000000000000000000000000000081526004016117999061318f565b60405180910390fd5b600d600083815260200190815260200160002060009054906101000a900460ff1615611803576040517f08c379a00000000000000000000000000000000000000000000000000000000081526004016117fa906132af565b60405180910390fd5b6001600d600084815260200190815260200160002060006101000a81548160ff02191690831515021790555050508061183b9061364d565b905061165e565b506118503383839050612168565b5050565b606061185f82611ae9565b61189e576040517f08c379a00000000000000000000000000000000000000000000000000000000081526004016118959061324f565b60405180910390fd5b60006118a8612249565b905060008151116118c857604051806020016040528060008152506118f3565b806118d2846122db565b6040516020016118e3929190613031565b6040516020818303038152906040525b915050919050565b611903611cf1565b80600c60006101000a81548160ff02191690831515021790555050565b611928611cf1565b600b5481111561196d576040517f08c379a00000000000000000000000000000000000000000000000000000000081526004016119649061322f565b60405180910390fd5b80600b600082825461197f91906134c0565b9250508190555061199033826123b3565b50565b61199b611cf1565b6000600b81905550565b61030981565b60095481565b6000600860008473ffffffffffffffffffffffffffffffffffffffff1673ffffffffffffffffffffffffffffffffffffffff16815260200190815260200160002060008373ffffffffffffffffffffffffffffffffffffffff1673ffffffffffffffffffffffffffffffffffffffff16815260200190815260200160002060009054906101000a900460ff16905092915050565b611a4d611cf1565b600073ffffffffffffffffffffffffffffffffffffffff168173ffffffffffffffffffffffffffffffffffffffff161415611abd576040517f08c379a0000000000000000000000000000000000000000000000000000000008152600401611ab49061316f565b60405180910390fd5b611ac681611d6f565b50565b600d6020528060005260406000206000915054906101000a900460ff1681565b600081611af4611b50565b11158015611b03575060015482105b8015611b41575060007c0100000000000000000000000000000000000000000000000000000000600560008581526020019081526020016000205416145b9050919050565b600033905090565b60006001905090565b60008082905080611b68611b50565b11611bf057600154811015611bef5760006005600083815260200190815260200160002054905060007c010000000000000000000000000000000000000000000000000000000082161415611bed575b6000811415611be3576005600083600190039350838152602001908152602001600020549050611bb8565b8092505050611c22565b505b5b6040517fdf2d9b4200000000000000000000000000000000000000000000000000000000815260040160405180910390fd5b919050565b60008060006007600085815260200190815260200160002090508092508254915050915091565b600073ffffffffffffffffffffffffffffffffffffffff8316925073ffffffffffffffffffffffffffffffffffffffff821691508382148383141790509392505050565b50505050565b60008060e883901c905060e8611caf8686846123d1565b62ffffff16901b9150509392505050565b600073ffffffffffffffffffffffffffffffffffffffff83169250814260a01b178317905092915050565b50505050565b611cf96123da565b73ffffffffffffffffffffffffffffffffffffffff16611d17611117565b73ffffffffffffffffffffffffffffffffffffffff1614611d6d576040517f08c379a0000000000000000000000000000000000000000000000000000000008152600401611d64906131ef565b60405180910390fd5b565b60008060009054906101000a900473ffffffffffffffffffffffffffffffffffffffff169050816000806101000a81548173ffffffffffffffffffffffffffffffffffffffff021916908373ffffffffffffffffffffffffffffffffffffffff1602179055508173ffffffffffffffffffffffffffffffffffffffff168173ffffffffffffffffffffffffffffffffffffffff167f8be0079c531659141344cd1fd0a4f28419497f9722a3daafe3b4186f6b6457e060405160405180910390a35050565b600082611e4085846123e2565b1490509392505050565b600060015490506000821415611e8c576040517fb562e8dd00000000000000000000000000000000000000000000000000000000815260040160405180910390fd5b611e996000848385611c92565b600160406001901b178202600660008573ffffffffffffffffffffffffffffffffffffffff1673ffffffffffffffffffffffffffffffffffffffff16815260200190815260200160002060008282540192505081905550611f1083611f016000866000611c98565b611f0a85612438565b17611cc0565b6005600083815260200190815260200160002081905550600080838301905073ffffffffffffffffffffffffffffffffffffffff85169150828260007fddf252ad1be2c89b69c2b068fc378daa952ba7f163c4a11628f55a4df523b3ef600080a4600183015b818114611fb157808360007fddf252ad1be2c89b69c2b068fc378daa952ba7f163c4a11628f55a4df523b3ef600080a4600181019050611f76565b506000821415611fed576040517f2e07630000000000000000000000000000000000000000000000000000000000815260040160405180910390fd5b8060018190555050506120036000848385611ceb565b505050565b60008373ffffffffffffffffffffffffffffffffffffffff1663150b7a0261202e611b48565b8786866040518563ffffffff1660e01b81526004016120509493929190613090565b602060405180830381600087803b15801561206a57600080fd5b505af192505050801561209b57506040513d601f19601f820116820180604052508101906120989190612c61565b60015b612115573d80600081146120cb576040519150601f19603f3d011682016040523d82523d6000602084013e6120d0565b606091505b5060008151141561210d576040517fd1a57ed600000000000000000000000000000000000000000000000000000000815260040160405180910390fd5b805181602001fd5b63150b7a0260e01b7bffffffffffffffffffffffffffffffffffffffffffffffffffffffff1916817bffffffffffffffffffffffffffffffffffffffffffffffffffffffff191614915050949350505050565b6000600a54826121789190613466565b90506000600c826121899190613435565b9050600b5461030961219b91906134c0565b826121a4610af3565b6121ae91906133df565b11156121ef576040517f08c379a00000000000000000000000000000000000000000000000000000000081526004016121e69061328f565b60405180910390fd5b60005b818110156122165761220585600c611e4a565b8061220f9061364d565b90506121f2565b506000600c8361222691906136ba565b11156122435761224284600c8461223d91906136ba565b611e4a565b5b50505050565b6060600f8054612258906135ea565b80601f0160208091040260200160405190810160405280929190818152602001828054612284906135ea565b80156122d15780601f106122a6576101008083540402835291602001916122d1565b820191906000526020600020905b8154815290600101906020018083116122b457829003601f168201915b5050505050905090565b6060600060016122ea84612448565b01905060008167ffffffffffffffff811115612309576123086137a7565b5b6040519080825280601f01601f19166020018201604052801561233b5781602001600182028036833780820191505090505b509050600082602001820190505b6001156123a8578080600190039150507f3031323334353637383961626364656600000000000000000000000000000000600a86061a8153600a85816123925761239161371a565b5b04945060008514156123a3576123a8565b612349565b819350505050919050565b6123cd82826040518060200160405280600081525061259b565b5050565b60009392505050565b600033905090565b60008082905060005b845181101561242d576124188286838151811061240b5761240a613778565b5b6020026020010151612639565b915080806124259061364d565b9150506123eb565b508091505092915050565b60006001821460e11b9050919050565b600080600090507a184f03e93ff9f4daa797ed6e38ed64bf6a1f01000000000000000083106124a6577a184f03e93ff9f4daa797ed6e38ed64bf6a1f010000000000000000838161249c5761249b61371a565b5b0492506040810190505b6d04ee2d6d415b85acef810000000083106124e3576d04ee2d6d415b85acef810000000083816124d9576124d861371a565b5b0492506020810190505b662386f26fc10000831061251257662386f26fc1000083816125085761250761371a565b5b0492506010810190505b6305f5e100831061253b576305f5e10083816125315761253061371a565b5b0492506008810190505b61271083106125605761271083816125565761255561371a565b5b0492506004810190505b6064831061258357606483816125795761257861371a565b5b0492506002810190505b600a8310612592576001810190505b80915050919050565b6125a58383611e4a565b60008373ffffffffffffffffffffffffffffffffffffffff163b146126345760006001549050600083820390505b6125e66000868380600101945086612008565b61261c576040517fd1a57ed600000000000000000000000000000000000000000000000000000000815260040160405180910390fd5b8181106125d357816001541461263157600080fd5b50505b505050565b60008183106126515761264c8284612664565b61265c565b61265b8383612664565b5b905092915050565b600082600052816020526040600020905092915050565b828054612687906135ea565b90600052602060002090601f0160209004810192826126a957600085556126f0565b82601f106126c257805160ff19168380011785556126f0565b828001600101855582156126f0579182015b828111156126ef5782518255916020019190600101906126d4565b5b5090506126fd9190612701565b5090565b5b8082111561271a576000816000905550600101612702565b5090565b600061273161272c8461332f565b61330a565b90508281526020810184848401111561274d5761274c6137e5565b5b6127588482856135a8565b509392505050565b600061277361276e84613360565b61330a565b90508281526020810184848401111561278f5761278e6137e5565b5b61279a8482856135a8565b509392505050565b6000813590506127b181613aeb565b92915050565b6000815190506127c681613aeb565b92915050565b60008083601f8401126127e2576127e16137db565b5b8235905067ffffffffffffffff8111156127ff576127fe6137d6565b5b60208301915083602082028301111561281b5761281a6137e0565b5b9250929050565b60008083601f840112612838576128376137db565b5b8235905067ffffffffffffffff811115612855576128546137d6565b5b602083019150836020820283011115612871576128706137e0565b5b9250929050565b60008135905061288781613b02565b92915050565b60008135905061289c81613b19565b92915050565b6000813590506128b181613b30565b92915050565b6000815190506128c681613b30565b92915050565b600082601f8301126128e1576128e06137db565b5b81356128f184826020860161271e565b91505092915050565b600082601f83011261290f5761290e6137db565b5b813561291f848260208601612760565b91505092915050565b60008135905061293781613b47565b92915050565b600060208284031215612953576129526137ef565b5b6000612961848285016127a2565b91505092915050565b6000602082840312156129805761297f6137ef565b5b600061298e848285016127b7565b91505092915050565b600080604083850312156129ae576129ad6137ef565b5b60006129bc858286016127a2565b92505060206129cd858286016127a2565b9150509250929050565b6000806000606084860312156129f0576129ef6137ef565b5b60006129fe868287016127a2565b9350506020612a0f868287016127a2565b9250506040612a2086828701612928565b9150509250925092565b60008060008060808587031215612a4457612a436137ef565b5b6000612a52878288016127a2565b9450506020612a63878288016127a2565b9350506040612a7487828801612928565b925050606085013567ffffffffffffffff811115612a9557612a946137ea565b5b612aa1878288016128cc565b91505092959194509250565b60008060408385031215612ac457612ac36137ef565b5b6000612ad2858286016127a2565b9250506020612ae385828601612878565b9150509250929050565b60008060408385031215612b0457612b036137ef565b5b6000612b12858286016127a2565b9250506020612b2385828601612928565b9150509250929050565b600080600060408486031215612b4657612b456137ef565b5b600084013567ffffffffffffffff811115612b6457612b636137ea565b5b612b70868287016127cc565b93509350506020612b8386828701612928565b9150509250925092565b60008060208385031215612ba457612ba36137ef565b5b600083013567ffffffffffffffff811115612bc257612bc16137ea565b5b612bce85828601612822565b92509250509250929050565b600060208284031215612bf057612bef6137ef565b5b6000612bfe84828501612878565b91505092915050565b600060208284031215612c1d57612c1c6137ef565b5b6000612c2b8482850161288d565b91505092915050565b600060208284031215612c4a57612c496137ef565b5b6000612c58848285016128a2565b91505092915050565b600060208284031215612c7757612c766137ef565b5b6000612c85848285016128b7565b91505092915050565b600060208284031215612ca457612ca36137ef565b5b600082013567ffffffffffffffff811115612cc257612cc16137ea565b5b612cce848285016128fa565b91505092915050565b600060208284031215612ced57612cec6137ef565b5b6000612cfb84828501612928565b91505092915050565b612d0d816134f4565b82525050565b612d24612d1f826134f4565b613696565b82525050565b612d3381613506565b82525050565b612d4281613512565b82525050565b6000612d5382613391565b612d5d81856133a7565b9350612d6d8185602086016135b7565b612d76816137f4565b840191505092915050565b612d8a81613572565b82525050565b6000612d9b8261339c565b612da581856133c3565b9350612db58185602086016135b7565b612dbe816137f4565b840191505092915050565b6000612dd48261339c565b612dde81856133d4565b9350612dee8185602086016135b7565b80840191505092915050565b6000612e076013836133c3565b9150612e1282613812565b602082019050919050565b6000612e2a6026836133c3565b9150612e358261383b565b604082019050919050565b6000612e4d6018836133c3565b9150612e588261388a565b602082019050919050565b6000612e706015836133c3565b9150612e7b826138b3565b602082019050919050565b6000612e936014836133c3565b9150612e9e826138dc565b602082019050919050565b6000612eb66005836133d4565b9150612ec182613905565b600582019050919050565b6000612ed96020836133c3565b9150612ee48261392e565b602082019050919050565b6000612efc601b836133c3565b9150612f0782613957565b602082019050919050565b6000612f1f602b836133c3565b9150612f2a82613980565b604082019050919050565b6000612f42602f836133c3565b9150612f4d826139cf565b604082019050919050565b6000612f65601b836133c3565b9150612f7082613a1e565b602082019050919050565b6000612f886000836133b8565b9150612f9382613a47565b600082019050919050565b6000612fab6013836133c3565b9150612fb682613a4a565b602082019050919050565b6000612fce6021836133c3565b9150612fd982613a73565b604082019050919050565b6000612ff16015836133c3565b9150612ffc82613ac2565b602082019050919050565b61301081613568565b82525050565b60006130228284612d13565b60148201915081905092915050565b600061303d8285612dc9565b91506130498284612dc9565b915061305482612ea9565b91508190509392505050565b600061306b82612f7b565b9150819050919050565b600060208201905061308a6000830184612d04565b92915050565b60006080820190506130a56000830187612d04565b6130b26020830186612d04565b6130bf6040830185613007565b81810360608301526130d18184612d48565b905095945050505050565b60006020820190506130f16000830184612d2a565b92915050565b600060208201905061310c6000830184612d39565b92915050565b60006020820190506131276000830184612d81565b92915050565b600060208201905081810360008301526131478184612d90565b905092915050565b6000602082019050818103600083015261316881612dfa565b9050919050565b6000602082019050818103600083015261318881612e1d565b9050919050565b600060208201905081810360008301526131a881612e40565b9050919050565b600060208201905081810360008301526131c881612e63565b9050919050565b600060208201905081810360008301526131e881612e86565b9050919050565b6000602082019050818103600083015261320881612ecc565b9050919050565b6000602082019050818103600083015261322881612eef565b9050919050565b6000602082019050818103600083015261324881612f12565b9050919050565b6000602082019050818103600083015261326881612f35565b9050919050565b6000602082019050818103600083015261328881612f58565b9050919050565b600060208201905081810360008301526132a881612f9e565b9050919050565b600060208201905081810360008301526132c881612fc1565b9050919050565b600060208201905081810360008301526132e881612fe4565b9050919050565b60006020820190506133046000830184613007565b92915050565b6000613314613325565b9050613320828261361c565b919050565b6000604051905090565b600067ffffffffffffffff82111561334a576133496137a7565b5b613353826137f4565b9050602081019050919050565b600067ffffffffffffffff82111561337b5761337a6137a7565b5b613384826137f4565b9050602081019050919050565b600081519050919050565b600081519050919050565b600082825260208201905092915050565b600081905092915050565b600082825260208201905092915050565b600081905092915050565b60006133ea82613568565b91506133f583613568565b9250827fffffffffffffffffffffffffffffffffffffffffffffffffffffffffffffffff0382111561342a576134296136eb565b5b828201905092915050565b600061344082613568565b915061344b83613568565b92508261345b5761345a61371a565b5b828204905092915050565b600061347182613568565b915061347c83613568565b9250817fffffffffffffffffffffffffffffffffffffffffffffffffffffffffffffffff04831182151516156134b5576134b46136eb565b5b828202905092915050565b60006134cb82613568565b91506134d683613568565b9250828210156134e9576134e86136eb565b5b828203905092915050565b60006134ff82613548565b9050919050565b60008115159050919050565b6000819050919050565b60007fffffffff0000000000000000000000000000000000000000000000000000000082169050919050565b600073ffffffffffffffffffffffffffffffffffffffff82169050919050565b6000819050919050565b600061357d82613584565b9050919050565b600061358f82613596565b9050919050565b60006135a182613548565b9050919050565b82818337600083830152505050565b60005b838110156135d55780820151818401526020810190506135ba565b838111156135e4576000848401525b50505050565b6000600282049050600182168061360257607f821691505b6020821081141561361657613615613749565b5b50919050565b613625826137f4565b810181811067ffffffffffffffff82111715613644576136436137a7565b5b80604052505050565b600061365882613568565b91507fffffffffffffffffffffffffffffffffffffffffffffffffffffffffffffffff82141561368b5761368a6136eb565b5b600182019050919050565b60006136a1826136a8565b9050919050565b60006136b382613805565b9050919050565b60006136c582613568565b91506136d083613568565b9250826136e0576136df61371a565b5b828206905092915050565b7f4e487b7100000000000000000000000000000000000000000000000000000000600052601160045260246000fd5b7f4e487b7100000000000000000000000000000000000000000000000000000000600052601260045260246000fd5b7f4e487b7100000000000000000000000000000000000000000000000000000000600052602260045260246000fd5b7f4e487b7100000000000000000000000000000000000000000000000000000000600052603260045260246000fd5b7f4e487b7100000000000000000000000000000000000000000000000000000000600052604160045260246000fd5b600080fd5b600080fd5b600080fd5b600080fd5b600080fd5b600080fd5b6000601f19601f8301169050919050565b60008160601b9050919050565b7f5472616e73636174696f6e206661696c65642100000000000000000000000000600082015250565b7f4f776e61626c653a206e6577206f776e657220697320746865207a65726f206160008201527f6464726573730000000000000000000000000000000000000000000000000000602082015250565b7f43616e277420636f6e6669726d206f776e657273686970210000000000000000600082015250565b7f436c61696d696e67206973206e6f74206c697665210000000000000000000000600082015250565b7f574c206d696e74206973206e6f74206c69766521000000000000000000000000600082015250565b7f2e6a736f6e000000000000000000000000000000000000000000000000000000600082015250565b7f4f776e61626c653a2063616c6c6572206973206e6f7420746865206f776e6572600082015250565b7f596f7520616c7265616479206d696e74656420796f757220574c210000000000600082015250565b7f526571756573746564206d696e7420636f756e7420657863656564732072657360008201527f65727665206c696d697421000000000000000000000000000000000000000000602082015250565b7f4552433732314d657461646174613a2055524920717565727920666f72206e6f60008201527f6e6578697374656e7420746f6b656e0000000000000000000000000000000000602082015250565b7f4d65726b6c6520766572696669636174696f6e206661696c6564210000000000600082015250565b50565b7f4d617820737570706c7920726561636865642100000000000000000000000000600082015250565b7f596f7520616c726561647920636c61696d656420796f757220576f6a6170657360008201527f2100000000000000000000000000000000000000000000000000000000000000602082015250565b7f636f6e7472616374732063616e2774206d696e74210000000000000000000000600082015250565b613af4816134f4565b8114613aff57600080fd5b50565b613b0b81613506565b8114613b1657600080fd5b50565b613b2281613512565b8114613b2d57600080fd5b50565b613b398161351c565b8114613b4457600080fd5b50565b613b5081613568565b8114613b5b57600080fd5b5056fea26469706673582212200eccec9c9808b05dc3bdd8d37068aa2dcedcdc21da2dac9261e32c2d44c767db64736f6c63430008070033",
  "linkReferences": {},
  "deployedLinkReferences": {}
}